:1000000021C03AC039C038C037C0EAC035C034C09A
:1000100033C032C031C030C02FC02EC02DC0000050
:10002000000037000000000038000102000004005A
:10003000000000003600020202020202010204086F
:100040001020800211241FBECFE5D1E0DEBFCDBF5E
:1000500020E0A0E6B0E001C01D92A837B207E1F7AA
:1000600010E0C2E2D0E003C02197FE015CD2C132B1
:10007000D107D1F744D15DC2C3CF90E0FC01E65D6A
:10008000FF4F3491FC01E45CFF4F2491FC01EA5CDA
:10009000FF4FE491EE23B9F0332329F03130A1F47E
:1000A0008AB58F778ABDF0E0EE0FFF1FEC5DFF4F42
:1000B000A591B4918FB7611118C0F894EC91209577
:1000C0002E232C938FBF0895323019F48AB58F7D7B
:1000D000E9CF333021F480B78F7D80BFE4CF343057
:1000E00011F78CB58F7D8CBDDECFF894EC912E2B63
:1000F000E8CFCF93DF9390E0FC01E45CFF4F2491C5
:100100008A5C9F4FFC0184918823D1F090E0880F96
:10011000991FFC01E25EFF4FA591B491FC01EC5DDB
:10012000FF4FC591D49161110EC09FB7F8948C9187
:10013000E22FE0958E238C932881E223E8839FBFF2
:10014000DF91CF9108958FB7F894EC91E22BEC9367
:100150008FBFF6CF2FB7F89460916500709166005D
:1001600080916700909168002FBF0895F3DF60933E
:10017000690070936A0080936B0090936C000895FF
:100180000F931F93CF93DF93C8ECD0E0811102C08F
:10019000C4EFD1E0DFDF00916D0010916E0020917F
:1001A0006F0030917000AB01BC01401B510B620B22
:1001B000730BCE01B0E0A0E084179507A607B70740
:1001C00050F4B39AC7DF60936D0070936E00809314
:1001D0006F0090937000DF91CF911F910F91089560
:1001E0001F920F920FB60F9211242F933F938F936C
:1001F0009F93AF93BF938091650090916600A0910B
:100200006700B09168003091640026E0230F2D371D
:1002100068F129E8230F0396A11DB11D2093640006
:100220008093650090936600A0936700B093680088
:100230008091600090916100A0916200B091630094
:100240000196A11DB11D8093600090936100A09361
:100250006200B0936300BF91AF919F918F913F91E6
:100260002F910F900FBE0F901F9018950296A11D11
:10027000B11DD4CFCF92DF92EF92FF920F931F93D5
:10028000E82FF92F08C000C000C00000015011097C
:100290002109310949F1908196239417A1F308C0EF
:1002A00000C000C000000150110921093109E1F02E
:1002B000908196239413F4CFC12CD12CE12CF12CF6
:1002C0000AC08FEFC81AD80AE80AF80A0C151D05EB
:1002D0002E053F0549F080818623841791F36C2D0C
:1002E0007D2D8E2D9F2D04C060E070E080E090E0B9
:1002F0001F910F91FF90EF90DF90CF90089583E0D2
:100300008ABD83BF789489B7826089BF87B5811120
:1003100008C082E087BD07B400FEFDCF87B58260CC
:1003200087BD80E48CBD8FEF8DBD87EC80BF86B12B
:100330008877866886B9379A60E084E0DADE61E023
:1003400083E0D7DE61E081E0D4DE60E081E095DE2D
:1003500061E083E092DEC1E050E4E52E50E0F52E4E
:100360006AE3C62E60E0D62E70E3872E75E7972EDF
:10037000A12CB12CC0937700F7016491F601849110
:10038000E82FF0E0EE0FFF1FE05DFF4F85919491A5
:1003900008E91AE320E030E0462F6CDF61157105B3
:1003A0008105910591F06F5F7F4F8F4F9F4F24E044
:1003B000660F771F881F991F2A95D1F733E096950E
:1003C0008795779567953A95D1F760937300709309
:1003D0007400809375009093760061157105810516
:1003E000910509F451C06458734081099109643F33
:1003F000714081059105B0F4C093720060E083E024
:100400003CDE60E081E039DE1092710010927700EE
:10041000ADDEA0DE60936D0070936E0080936F0080
:100420009093700080917200882309F467C08091D6
:100430007700882309F462C04090730050907400E4
:10044000609075007090760025EC421629E0520607
:100450006104710410F588E7481685E058066104C8
:100460007104E0F1E5EA4E16E6E05E06610471040F
:10047000A0F0F5E34F16F8E05F0661047104A8F5FB
:10048000C093710073DE31C080927300909274004B
:10049000A0927500B0927600C5CF5CDE0091690035
:1004A00010916A0020916B0030916C00601B710B01
:1004B000820B930B68347E4E8105910578F0C093D2
:1004C000710085EA481686E058066104710488F6D2
:1004D00061E081E0D2DD80E053DE4CCFE5EA4E16EC
:1004E000E6E05E066104710420F6809171008111DE
:1004F000EFCF60E081E0C1DD81E0EECF37DE3ACFC3
:1005000029DE6093690070936A0080936B0090937A
:100510006C0020DE60936D0070936E0080936F001E
:10052000909370000895EE0FFF1F0590F491E02D59
:060530000994F894FFCFCE
:00000001FF
